:100000000C945D000C9485000C9485000C94850084
:100010000C9485000C9485000C9485000C9485004C
:100020000C9485000C9485000C9485000C9485003C
:100030000C9485000C9485000C9485000C9485002C
:100040000C9436020C9485000C9485000C94850069
:100050000C9485000C9485000C9485000C9485000C
:100060000C9485000C94850000000008000201003B
:100070000003040700000000000000000000000072
:10008000250028002B0000000000240027002A0083
:10009000040404040404040402020202020203032E
:1000A0000303030301020408102040800102040836
:1000B0001020010204081020300311241FBECFEFCE
:1000C000D8E0DEBFCDBF11E0A0E0B1E0ECE0F7E0AA
:1000D00002C005900D92AC32B107D9F721E0ACE235
:1000E000B1E001C01D92A134B207E1F710E0CDE507
:1000F000D0E004C02197FE010E947903CC35D107DE
:10010000C9F70E9480020C9484030C94000090E0D4
:10011000FC01EC55FF4F2491FC01E057FF4F849107
:10012000882399F090E0880F991FFC01EA57FF4F50
:10013000A591B491FC01E458FF4F859194918FB73C
:10014000F894EC91E22BEC938FBF0895CF92DF925D
:10015000EF92FF920F931F93CF93DF936C017A017D
:100160008B01C0E0D0E0CE15DF0589F0D8016D919C
:100170008D01D601ED91FC910190F081E02DC60139
:100180000995892B11F47E0102C02196ECCFC7019D
:10019000DF91CF911F910F91FF90EF90DF90CF9063
:1001A000089590E0FC01E859FF4F3491FC01EC55B3
:1001B000FF4F2491FC01E057FF4FE491EE2309F437
:1001C0003BC0332339F1333091F038F43130A9F0AA
:1001D000323001F584B58F7D12C0373091F0383060
:1001E000A1F03430B9F4809180008F7D03C08091FC
:1001F00080008F77809380000DC084B58F7784BD99
:1002000009C08091B0008F7703C08091B0008F7DCE
:100210008093B000F0E0EE0FFF1FE458FF4FA59170
:10022000B4918FB7F894EC91611103C020952E23FF
:1002300001C02E2B2C938FBF0895DC01ED91FC9112
:100240000284F385E02D41E0099581E090E0089576
:10025000DC01ED91FC910284F385E02D40E00994EE
:10026000CF93DF93CDB7DEB760970FB6F894DEBFBC
:100270000FBECDBF98E0E0E0F1E0DE0119960190FD
:100280000D929A95E1F798E0E8E0F1E0DE01119631
:1002900001900D929A95E1F720913C01821710F0A0
:1002A0008FEF820F30913D0190E0880F991FE1E0C0
:1002B000F0E0EC0FFD1FE80FF91F303121F424307E
:1002C00011F4608101C06085606885E391E060960B
:1002D0000FB6F894DEBF0FBECDBFDF91CF910C9467
:1002E0002801089580E090E00895CF92DF92EF9288
:1002F000FF920F931F93CF93DF93EC01DA84C984AD
:1003000000E010E0E62EF12CB701002E02C075953A
:1003100067950A94E2F7617077278C2D0E94D100CF
:1003200061E08D2D0E94D10060E08D2D0E94D100F2
:100330000F5F1F4F0830110539F761E08B850E9470
:10034000D10060E08B85DF91CF911F910F91FF90DD
:10035000EF90DF90CF900C94D1000F931F93CF9329
:100360008C01C62F6F7D60610E9475016C2F6F7CC0
:10037000C801CF911F910F910C947501FF920F93BB
:100380001F93CF93DF931F92CDB7DEB78C01F62E6C
:10039000411140E46F2D62956F70642BC801498351
:1003A0000E94AD016F2D6F704981642BC8010F90C1
:1003B000DF91CF911F910F91FF900C94AD010F939E
:1003C0001F93CF93DF93EC01423018F08C8188604B
:1003D0008C834F836887222329F0413019F48C8164
:1003E00084608C838BE39DE00197F1F763E0CE019D
:1003F0000E94AD018BE496E40197F1F763E0CE0132
:100400000E94AD0183E592E00197F1F763E0CE0130
:100410000E94AD0162E0CE010E94AD016C8160627C
:10042000CE010E94280184E08D836CE0CE010E9401
:10043000280161E0CE010E9428010BE31FE1C80101
:100440000197F1F782E08E8366E0CE010E942801D9
:1004500062E0CE010E942801C8010197F1F7DF9107
:10046000CF911F910F9108950E947F031F920F92C9
:100470000FB60F9211242F933F938F939F93AF93B7
:10048000BF938091310190913201A0913301B091DD
:1004900034013091300123E0230F2D3720F40196F1
:1004A000A11DB11D05C026E8230F0296A11DB11D97
:1004B000209330018093310190933201A093330156
:1004C000B093340180912C0190912D01A0912E01C7
:1004D000B0912F010196A11DB11D80932C01909325
:1004E0002D01A0932E01B0932F01BF91AF919F9149
:1004F0008F913F912F910F900FBE0F901F901895E5
:10050000CF93DF93CDB7DEB7A1970FB6F894DEBFD8
:100510000FBECDBF789484B5826084BD84B5816000
:1005200084BD85B5826085BD85B5816085BD8091BE
:100530006E00816080936E00109281008091810036
:10054000826080938100809181008160809381002E
:10055000809180008160809380008091B1008460F0
:100560008093B1008091B00081608093B000809151
:100570007A00846080937A0080917A008260809310
:100580007A0080917A00816080937A0080917A006D
:10059000806880937A001092C10020E042E060E120
:1005A00085E391E00E94DF0162E085E391E00E9433
:1005B00028018BE39FE10197F1F780E00E94300171
:1005C0004BE050E060E271E085E391E00E94A6001C
:1005D00088EEC82E83E0D82EE12CF12C9AE0492E2B
:1005E000512C612C712C20E0A22E20E0B22E81E053
:1005F0000E9430012FB7F89460913101709132015F
:1006000080913301909134012FBFA70196010E9480
:10061000570319A28E010F5D1F4FCA01B901A30133
:1006200092010E945703605DF80162938F012115CA
:1006300031054105510589F7309761F0019000209F
:10064000E9F73197AF01401B510BB80185E391E009
:100650000E94A600A114B10451F20E940000C7CF6D
:100660001F93CF93DF93C5E3D1E01B821A8284E10D
:1006700091E09983888383E0898714E01A8782E078
:100680008B8784E00E94870089850E9487008B8584
:100690000E94870060E08B850E94D10060E0CE015F
:1006A0000E94AD011C83DF91CF911F910895A1E2BB
:1006B0001A2EAA1BBB1BFD010DC0AA1FBB1FEE1FDC
:1006C000FF1FA217B307E407F50720F0A21BB30B27
:1006D000E40BF50B661F771F881F991F1A9469F7A3
:1006E00060957095809590959B01AC01BD01CF01FF
:1006F0000895EE0FFF1F0590F491E02D099481E01D
:0C07000090E0F8940C948403F894FFCF70
:10070C000000400014005400000040001000500095
:10071C00000000001D01A60072017101DF01BE0185
:0C072C0048454C4C4F20574F524C4400A5
:00000001FF
