:100000000C9462000C948A000C948A000C948A0070
:100010000C948A000C948A000C948A000C948A0038
:100020000C948A000C948A000C948A000C948A0028
:100030000C948A000C948A000C948A000C948A0018
:100040000C9422040C948A000C94F0030C94CA03C0
:100050000C948A000C948A000C948A000C948A00F8
:100060000C948A000C948A000000000024002700F1
:100070002A0000000000250028002B0000000000DE
:1000800023002600290004040404040404040202DA
:100090000202020203030303030301020408102007
:1000A0004080010204081020010204081020000012
:1000B0000008000201000003040700000000000027
:1000C00000006C0411241FBECFEFD8E0DEBFCDBF0F
:1000D00011E0A0E0B1E0EEE7FCE002C005900D9277
:1000E000A435B107D9F722E0A4E5B1E001C01D9223
:1000F000A730B207E1F710E0C2E6D0E004C02197D4
:10010000FE010E943206C136D107C9F70E94C00421
:100110000C943D060C940000CF92DF92EF92FF9278
:100120000F931F93CF93DF936C017A018B01C0E093
:10013000D0E0CE15DF0589F0D8016D918D01D60193
:10014000ED91FC910190F081E02DC6010995892B7C
:1001500011F47E0102C02196ECCFC701DF91CF914F
:100160001F910F91FF90EF90DF90CF900895FC01C9
:10017000538D448D252F30E0842F90E0821B930B0C
:10018000541710F0CF96089501970895FC01918DB2
:10019000828D981761F0828DDF01A80FB11D5D96E9
:1001A0008C91928D9F5F9F73928F90E008958FEF57
:1001B0009FEF0895FC01918D828D981731F0828D0B
:1001C000E80FF11D858D90E008958FEF9FEF089562
:1001D000FC01918D228D892F90E0805C9F4F821BC6
:1001E00091098F73992708958EE591E00E94E800A8
:1001F00021E0892B09F420E0822F0895FC01848DF1
:10020000DF01A80FB11DA35ABF4F2C91848D90E040
:1002100001968F739927848FA689B7892C93A0891B
:10022000B1898C9180648C93938D848D981306C0D2
:100230000288F389E02D80818F7D80830895EF927D
:10024000FF920F931F93CF93DF93EC0181E0888F90
:100250009B8D8C8D981305C0E889F989808185FD77
:1002600024C0F62E0B8D10E00F5F1F4F0F73112768
:10027000E02E8C8DE8120CC00FB607FCFACFE8898F
:10028000F989808185FFF5CFCE010E94FE00F1CF74
:100290008B8DFE01E80FF11DE35AFF4FF0820B8FAB
:1002A000EA89FB898081806207C0EE89FF896083CB
:1002B000E889F98980818064808381E090E0DF9122
:1002C000CF911F910F91FF90EF900895CF93DF93FF
:1002D000EC01888D8823C9F0EA89FB89808185FD3E
:1002E00005C0A889B9898C9186FD0FC00FB607FC9F
:1002F000F5CF808185FFF2CFA889B9898C9185FFE0
:10030000EDCFCE010E94FE00E7CFDF91CF9108959F
:1003100080E090E0892B29F00E94F40081110C9478
:1003200000000895833081F028F4813099F0823004
:10033000A1F008958730A9F08830B9F08430D1F465
:10034000809180008F7D03C0809180008F778093A3
:100350008000089584B58F7702C084B58F7D84BDF9
:1003600008958091B0008F7703C08091B0008F7D99
:100370008093B0000895CF93DF93282F30E0F901E8
:10038000E255FF4F8491F901E656FF4FD491F901F0
:10039000EA57FF4FC491CC2391F081110E94920142
:1003A000EC2FF0E0EE0FFF1FE458FF4FA591B49142
:1003B000EC91ED2381E090E021F480E002C080E048
:1003C00090E0DF91CF9108951F93CF93DF93282F73
:1003D00030E0F901E255FF4F8491F901E656FF4FF5
:1003E000D491F901EA57FF4FC491CC23C9F0162FDD
:1003F00081110E949201EC2FF0E0EE0FFF1FEE58EA
:10040000FF4FA591B4918FB7F894111105C09C913D
:10041000ED2FE095E92302C0EC91ED2BEC938FBF1B
:10042000DF91CF911F910895CF93DF9390E0FC016E
:10043000E656FF4F2491FC01EA57FF4F8491882331
:1004400061F190E0880F991FFC01E859FF4FC591B9
:10045000D491FC01EE58FF4FA591B491611109C0F0
:100460009FB7F8948881209582238883EC912E236E
:100470000BC0623061F49FB7F8943881822F809569
:1004800083238883EC912E2B2C939FBF06C08FB7BC
:10049000F894E8812E2B28838FBFDF91CF910895A8
:1004A0003FB7F8948091590190915A01A0915B0156
:1004B000B0915C0126B5A89B05C02F3F19F00196AD
:1004C000A11DB11D3FBFBA2FA92F982F8827820FDA
:1004D000911DA11DB11DBC01CD0142E0660F771F2A
:1004E000881F991F4A95D1F708958F929F92AF92D6
:1004F000BF92CF92DF92EF92FF926B017C010E943C
:1005000050024B015C01C114D104E104F104F1F08B
:100510000E945002DC01CB0188199909AA09BB0984
:10052000883E9340A105B10570F321E0C21AD108BD
:10053000E108F10888EE880E83E0981EA11CB11C2A
:10054000C114D104E104F10419F7DDCFFF90EF905D
:10055000DF90CF90BF90AF909F908F900895DC0177
:10056000ED91FC910284F385E02D41E0099581E055
:1005700090E00895DC01ED91FC910284F385E02D7B
:1005800040E00994CF93DF93CDB7DEB760970FB605
:10059000F894DEBF0FBECDBF682F88E0E0E0F1E049
:1005A000DE01199601900D928A95E1F788E0E8E066
:1005B000F1E0DE01119601900D928A95E1F78091AC
:1005C000020221E0811120E021959091030230E0A8
:1005D000220F331FE1E0F0E0EC0FFD1FE20FF31FED
:1005E000903121F4843011F4908101C09085690F1D
:1005F00060688BEF91E060960FB6F894DEBF0FBE97
:10060000CDBFDF91CF910C94BA02089580E090E0C5
:100610000895CF92DF92EF92FF920F931F93CF93A3
:10062000DF93EC01DA84C98400E010E0E62EF12CBF
:10063000B701002E02C0759567950A94E2F76170C4
:1006400077278C2D0E94E40161E08D2D0E94E4014A
:1006500060E08D2D0E94E4010F5F1F4F08301105EF
:1006600039F761E08B850E94E40160E08B85DF91C2
:10067000CF911F910F91FF90EF90DF90CF900C944E
:10068000E4010F931F93CF938C01C62F6F7D6061A0
:100690000E9409036C2F6F7CC801CF911F910F91AD
:1006A0000C940903FF920F931F93CF93DF931F9234
:1006B000CDB7DEB78C01F62E411140E46F2D629567
:1006C0006F70642BC80149830E9441036F2D6F70C6
:1006D0004981642BC8010F90DF91CF911F910F9139
:1006E000FF900C9441030F931F93CF93DF93EC0182
:1006F000423018F08C8188608C834F836887222376
:1007000029F0413019F48C8184608C838BE39DE067
:100710000197F1F763E0CE010E9441038BE496E478
:100720000197F1F763E0CE010E94410383E592E077
:100730000197F1F763E0CE010E94410362E0CE0130
:100740000E9441036C816062CE010E94BA0284E083
:100750008D836CE0CE010E94BA0261E0CE010E945E
:10076000BA020BE31FE1C8010197F1F782E08E8323
:1007700066E0CE010E94BA0262E0CE010E94BA0297
:10078000C8010197F1F7DF91CF911F910F91089563
:100790000E9438061F920F920FB60F9211242F93CA
:1007A0003F934F935F936F937F938F939F93AF93F9
:1007B000BF93EF93FF938EE591E00E94FE00FF91BF
:1007C000EF91BF91AF919F918F917F916F915F91C9
:1007D0004F913F912F910F900FBE0F901F90189542
:1007E0001F920F920FB60F9211242F938F939F9306
:1007F000EF93FF93E0916E01F0916F018081E091A2
:100800007401F091750182FD12C090818091770191
:100810008F5F8F7320917801821751F0E0917701FB
:10082000F0E0E25AFE4F958F8093770101C08081FE
:10083000FF91EF919F918F912F910F900FBE0F908D
:100840001F9018951F920F920FB60F9211242F939D
:100850003F938F939F93AF93BF9380915501909156
:100860005601A0915701B09158013091540123E0F5
:10087000230F2D3720F40196A11DB11D05C026E8D8
:10088000230F0296A11DB11D2093540180935501A1
:1008900090935601A0935701B0935801809159014C
:1008A00090915A01A0915B01B0915C010196A11D4C
:1008B000B11D8093590190935A01A0935B01B093AD
:1008C0005C01BF91AF919F918F913F912F910F90BC
:1008D0000FBE0F901F901895CF93DF93EEE5F1E0D8
:1008E0001382128288EE93E0A0E0B0E084839583C7
:1008F000A683B7838EE291E09183808385EC90E0BC
:100900009587848784EC90E09787868780EC90E0D9
:10091000918B808B81EC90E0938B828B82EC90E0CA
:10092000958B848B86EC90E0978B868B118E128E44
:10093000138E148ECBEFD1E01B821A8280E491E0FB
:100940009983888383E089871A8682E08B8761E0B8
:1009500080E00E94140261E089850E94140261E037
:100960008B850E94140260E08B850E94E40160E0A8
:10097000CE010E94410384E08C83DF91CF910895E2
:10098000789484B5826084BD84B5816084BD85B56A
:10099000826085BD85B5816085BD80916E00816076
:1009A00080936E001092810080918100826080931C
:1009B000810080918100816080938100809180001E
:1009C0008160809380008091B10084608093B10049
:1009D0008091B00081608093B00080917A00846043
:1009E00080937A0080917A00826080937A0080916F
:1009F0007A00816080937A0080917A008068809389
:100A00007A001092C10062E08DE00E94140262E060
:100A10008CE00E94140262E08BE00E94140261E00C
:100A20008FE00E94140261E080E10E94140261E004
:100A300081E10E94140261E082E10E941402E091CF
:100A40006E01F0916F0182E08083E0916A01F09184
:100A50006B011082E0916C01F0916D018FEC80834D
:100A600010927601E0917201F091730186E080832B
:100A7000E0917001F0917101808180618083E0914B
:100A80007001F0917101808188608083E091700134
:100A9000F0917101808180688083E0917001F09114
:100AA000710180818F7D808320E042E060E18BEFE7
:100AB00091E00E94730362E08BEF91E00E94BA0222
:100AC0008BE39FE10197F1F782E00E94C20244E0CC
:100AD00050E06CE471E08BEF91E00E948C00CAE082
:100AE00061E08C2F0E941402C150C330C9F761E04D
:100AF00083E10E94140260E08EE00E94140220E272
:100B0000A22EC2E2D1E090E1E92E91E0F92EB88068
:100B1000229660E08B2D0E94E4018CE1C82E81E0DA
:100B2000D82E00E010E0F6018081F2E0CF0ED11C5B
:100B30000E94BB01892B41F5F701E00FF11F808175
:100B400080935D0164E670E080E090E00E947502B1
:100B500060E08AE00E94E40161E089E00E94E40133
:100B600061E088E00E94E40160E087E00E94E40127
:100B700060E086E00E94E40160E085E00E94E4011C
:100B800060E084E00E94E4010F5F1F4F0330110515
:100B900051F661E08B2D0E94E40183E0E80EF11C28
:100BA00091E0CA32D90709F0B2CFE0915E01F0912D
:100BB0005F010190F081E02D60915D018EE591E093
:100BC000099542E050E061E571E08EE591E00E9418
:100BD0008C0080E00E94C202E091FB01F091FC01D8
:100BE0000190F081E02D60915D018BEF91E009951E
:100BF00064EF71E080E090E00E947502A0925D01D8
:100C000061E08AE00E94E40161E089E00E94E40181
:100C100061E088E00E94E40161E087E00E94E40175
:100C200061E086E00E94E40161E085E00E94E40169
:100C300060E084E00E94E4018EE00E94BB01892B09
:100C400071F461E083E10E94E40168EE73E080E00A
:100C500090E00E94750260E083E10E94E4010E943E
:100C600088014FCFEE0FFF1F0590F491E02D0994FE
:0E0C700081E090E0F8940C943D06F894FFCFDC
:100C7E00000040001400540000004000100050001E
:100C8E003132333435363738392A30230D000C00E3
:100C9E000B000F00100011001200000000001F01D9
:100CAE008C00B7006601E800C600DA000000000004
:100CBE00AF028C000603050373035203546573746D
:040CCE00000D0A000B
:00000001FF
